{
  "address": "0xEc86D47d98EeeF824Ff79fAE2cFA3Fd57Ab87F9D",
  "startBlock": 361277,
  "abi": [
    {
      "type": "constructor",
      "inputs": [],
      "stateMutability": "nonpayable"
    },
    {
      "type": "function",
      "name": "UPGRADE_INTERFACE_VERSION",
      "inputs": [],
      "outputs": [
        {
          "name": "",
          "type": "string",
          "internalType": "string"
        }
      ],
      "stateMutability": "view"
    },
    {
      "type": "function",
      "name": "chainGateways",
      "inputs": [
        {
          "name": "_chainId",
          "type": "uint32",
          "internalType": "uint32"
        }
      ],
      "outputs": [
        {
          "name": "_gateway",
          "type": "bytes32",
          "internalType": "bytes32"
        }
      ],
      "stateMutability": "view"
    },
    {
      "type": "function",
      "name": "handle",
      "inputs": [
        {
          "name": "_origin",
          "type": "uint32",
          "internalType": "uint32"
        },
        {
          "name": "_sender",
          "type": "bytes32",
          "internalType": "bytes32"
        },
        {
          "name": "_message",
          "type": "bytes",
          "internalType": "bytes"
        }
      ],
      "outputs": [],
      "stateMutability": "payable"
    },
    {
      "type": "function",
      "name": "initialize",
      "inputs": [
        {
          "name": "_owner",
          "type": "address",
          "internalType": "address"
        },
        {
          "name": "_mailbox",
          "type": "address",
          "internalType": "address"
        },
        {
          "name": "_receiver",
          "type": "address",
          "internalType": "address"
        },
        {
          "name": "_interchainSecurityModule",
          "type": "address",
          "internalType": "address"
        }
      ],
      "outputs": [],
      "stateMutability": "nonpayable"
    },
    {
      "type": "function",
      "name": "interchainSecurityModule",
      "inputs": [],
      "outputs": [
        {
          "name": "",
          "type": "address",
          "internalType": "contract IInterchainSecurityModule"
        }
      ],
      "stateMutability": "view"
    },
    {
      "type": "function",
      "name": "mailbox",
      "inputs": [],
      "outputs": [
        {
          "name": "",
          "type": "address",
          "internalType": "contract IMailbox"
        }
      ],
      "stateMutability": "view"
    },
    {
      "type": "function",
      "name": "owner",
      "inputs": [],
      "outputs": [
        {
          "name": "",
          "type": "address",
          "internalType": "address"
        }
      ],
      "stateMutability": "view"
    },
    {
      "type": "function",
      "name": "proxiableUUID",
      "inputs": [],
      "outputs": [
        {
          "name": "",
          "type": "bytes32",
          "internalType": "bytes32"
        }
      ],
      "stateMutability": "view"
    },
    {
      "type": "function",
      "name": "quoteMessage",
      "inputs": [
        {
          "name": "_chainId",
          "type": "uint32",
          "internalType": "uint32"
        },
        {
          "name": "_message",
          "type": "bytes",
          "internalType": "bytes"
        },
        {
          "name": "_gasLimit",
          "type": "uint256",
          "internalType": "uint256"
        }
      ],
      "outputs": [
        {
          "name": "_fee",
          "type": "uint256",
          "internalType": "uint256"
        }
      ],
      "stateMutability": "view"
    },
    {
      "type": "function",
      "name": "receiver",
      "inputs": [],
      "outputs": [
        {
          "name": "",
          "type": "address",
          "internalType": "contract IMessageReceiver"
        }
      ],
      "stateMutability": "view"
    },
    {
      "type": "function",
      "name": "removeChainGateway",
      "inputs": [
        {
          "name": "_chainId",
          "type": "uint32",
          "internalType": "uint32"
        }
      ],
      "outputs": [],
      "stateMutability": "nonpayable"
    },
    {
      "type": "function",
      "name": "renounceOwnership",
      "inputs": [],
      "outputs": [],
      "stateMutability": "nonpayable"
    },
    {
      "type": "function",
      "name": "sendMessage",
      "inputs": [
        {
          "name": "_chainId",
          "type": "uint32",
          "internalType": "uint32"
        },
        {
          "name": "_message",
          "type": "bytes",
          "internalType": "bytes"
        },
        {
          "name": "_fee",
          "type": "uint256",
          "internalType": "uint256"
        },
        {
          "name": "_gasLimit",
          "type": "uint256",
          "internalType": "uint256"
        }
      ],
      "outputs": [
        {
          "name": "_messageId",
          "type": "bytes32",
          "internalType": "bytes32"
        },
        {
          "name": "_feeSpent",
          "type": "uint256",
          "internalType": "uint256"
        }
      ],
      "stateMutability": "nonpayable"
    },
    {
      "type": "function",
      "name": "sendMessage",
      "inputs": [
        {
          "name": "_chainId",
          "type": "uint32",
          "internalType": "uint32"
        },
        {
          "name": "_message",
          "type": "bytes",
          "internalType": "bytes"
        },
        {
          "name": "_gasLimit",
          "type": "uint256",
          "internalType": "uint256"
        }
      ],
      "outputs": [
        {
          "name": "_messageId",
          "type": "bytes32",
          "internalType": "bytes32"
        },
        {
          "name": "_feeSpent",
          "type": "uint256",
          "internalType": "uint256"
        }
      ],
      "stateMutability": "payable"
    },
    {
      "type": "function",
      "name": "setChainGateway",
      "inputs": [
        {
          "name": "_chainId",
          "type": "uint32",
          "internalType": "uint32"
        },
        {
          "name": "_gateway",
          "type": "bytes32",
          "internalType": "bytes32"
        }
      ],
      "outputs": [],
      "stateMutability": "nonpayable"
    },
    {
      "type": "function",
      "name": "transferOwnership",
      "inputs": [
        {
          "name": "newOwner",
          "type": "address",
          "internalType": "address"
        }
      ],
      "outputs": [],
      "stateMutability": "nonpayable"
    },
    {
      "type": "function",
      "name": "updateMailbox",
      "inputs": [
        {
          "name": "_newMailbox",
          "type": "address",
          "internalType": "address"
        }
      ],
      "outputs": [],
      "stateMutability": "nonpayable"
    },
    {
      "type": "function",
      "name": "updateSecurityModule",
      "inputs": [
        {
          "name": "_newSecurityModule",
          "type": "address",
          "internalType": "address"
        }
      ],
      "outputs": [],
      "stateMutability": "nonpayable"
    },
    {
      "type": "function",
      "name": "upgradeToAndCall",
      "inputs": [
        {
          "name": "newImplementation",
          "type": "address",
          "internalType": "address"
        },
        {
          "name": "data",
          "type": "bytes",
          "internalType": "bytes"
        }
      ],
      "outputs": [],
      "stateMutability": "payable"
    },
    {
      "type": "event",
      "name": "ChainGatewayAdded",
      "inputs": [
        {
          "name": "_chainId",
          "type": "uint32",
          "indexed": false,
          "internalType": "uint32"
        },
        {
          "name": "_gateway",
          "type": "bytes32",
          "indexed": false,
          "internalType": "bytes32"
        }
      ],
      "anonymous": false
    },
    {
      "type": "event",
      "name": "ChainGatewayRemoved",
      "inputs": [
        {
          "name": "_chainId",
          "type": "uint32",
          "indexed": false,
          "internalType": "uint32"
        },
        {
          "name": "_gateway",
          "type": "bytes32",
          "indexed": false,
          "internalType": "bytes32"
        }
      ],
      "anonymous": false
    },
    {
      "type": "event",
      "name": "Initialized",
      "inputs": [
        {
          "name": "version",
          "type": "uint64",
          "indexed": false,
          "internalType": "uint64"
        }
      ],
      "anonymous": false
    },
    {
      "type": "event",
      "name": "MailboxUpdated",
      "inputs": [
        {
          "name": "_oldMailbox",
          "type": "address",
          "indexed": false,
          "internalType": "address"
        },
        {
          "name": "_newMailbox",
          "type": "address",
          "indexed": false,
          "internalType": "address"
        }
      ],
      "anonymous": false
    },
    {
      "type": "event",
      "name": "OwnershipTransferred",
      "inputs": [
        {
          "name": "previousOwner",
          "type": "address",
          "indexed": true,
          "internalType": "address"
        },
        {
          "name": "newOwner",
          "type": "address",
          "indexed": true,
          "internalType": "address"
        }
      ],
      "anonymous": false
    },
    {
      "type": "event",
      "name": "SecurityModuleUpdated",
      "inputs": [
        {
          "name": "_oldSecurityModule",
          "type": "address",
          "indexed": false,
          "internalType": "address"
        },
        {
          "name": "_newSecurityModule",
          "type": "address",
          "indexed": false,
          "internalType": "address"
        }
      ],
      "anonymous": false
    },
    {
      "type": "event",
      "name": "Upgraded",
      "inputs": [
        {
          "name": "implementation",
          "type": "address",
          "indexed": true,
          "internalType": "address"
        }
      ],
      "anonymous": false
    },
    {
      "type": "error",
      "name": "AddressEmptyCode",
      "inputs": [
        {
          "name": "target",
          "type": "address",
          "internalType": "address"
        }
      ]
    },
    {
      "type": "error",
      "name": "ERC1967InvalidImplementation",
      "inputs": [
        {
          "name": "implementation",
          "type": "address",
          "internalType": "address"
        }
      ]
    },
    {
      "type": "error",
      "name": "ERC1967NonPayable",
      "inputs": []
    },
    {
      "type": "error",
      "name": "FailedInnerCall",
      "inputs": []
    },
    {
      "type": "error",
      "name": "Gateway_Handle_InvalidOriginDomain",
      "inputs": []
    },
    {
      "type": "error",
      "name": "Gateway_Handle_InvalidSender",
      "inputs": []
    },
    {
      "type": "error",
      "name": "Gateway_Handle_NotCalledByMailbox",
      "inputs": []
    },
    {
      "type": "error",
      "name": "Gateway_SendMessage_InsufficientBalance",
      "inputs": []
    },
    {
      "type": "error",
      "name": "Gateway_SendMessage_UnauthorizedCaller",
      "inputs": []
    },
    {
      "type": "error",
      "name": "Gateway_SendMessage_UnsuccessfulRebate",
      "inputs": []
    },
    {
      "type": "error",
      "name": "Gateway_ZeroAddress",
      "inputs": []
    },
    {
      "type": "error",
      "name": "HubGateway_RemoveGateway_GatewayAlreadyRemoved",
      "inputs": [
        {
          "name": "_chainId",
          "type": "uint32",
          "internalType": "uint32"
        }
      ]
    },
    {
      "type": "error",
      "name": "InvalidInitialization",
      "inputs": []
    },
    {
      "type": "error",
      "name": "NotInitializing",
      "inputs": []
    },
    {
      "type": "error",
      "name": "OwnableInvalidOwner",
      "inputs": [
        {
          "name": "owner",
          "type": "address",
          "internalType": "address"
        }
      ]
    },
    {
      "type": "error",
      "name": "OwnableUnauthorizedAccount",
      "inputs": [
        {
          "name": "account",
          "type": "address",
          "internalType": "address"
        }
      ]
    },
    {
      "type": "error",
      "name": "UUPSUnauthorizedCallContext",
      "inputs": []
    },
    {
      "type": "error",
      "name": "UUPSUnsupportedProxiableUUID",
      "inputs": [
        {
          "name": "slot",
          "type": "bytes32",
          "internalType": "bytes32"
        }
      ]
    }
  ],
  "bytecode": {
    "object": "0x60a06040523060805234801561001457600080fd5b5061001d610022565b6100d4565b7ff0c57e16840df040f15088dc2f81fe391c3923bec73e23a9662efc9c229c6a00805468010000000000000000900460ff16156100725760405163f92ee8a960e01b815260040160405180910390fd5b80546001600160401b03908116146100d15780546001600160401b0319166001600160401b0390811782556040519081527fc7f505b2f371ae2175ee4913f4499e1f2633a7b5936321eed1cdaeb6115181d29060200160405180910390a15b50565b6080516117ce6100fd60003960008181610c9a01528181610cc30152610e0901526117ce6000f3fe6080604052600436106101145760003560e01c80638da5cb5b116100a0578063de523cf311610064578063de523cf314610322578063edad341b14610342578063f2fde38b14610362578063f7260d3e14610382578063f8c8765e146103a257600080fd5b80638da5cb5b1461022657806391a3ef8e14610277578063a1f9495e14610297578063ad3cb1cc146102c4578063d5438eae1461030257600080fd5b80634f1ef286116100e75780634f1ef286146101b657806352d1902d146101c957806356d5d475146101de578063715018a6146101f15780638a901b9f1461020657600080fd5b80630278681b1461011957806304e77a661461014c5780633e8c4294146101815780634461ef4114610194575b600080fd5b34801561012557600080fd5b50610139610134366004611323565b6103c2565b6040519081526020015b60405180910390f35b34801561015857600080fd5b5061016c61016736600461137d565b610473565b60408051928352602083019190915201610143565b61016c61018f366004611323565b61058c565b3480156101a057600080fd5b506101b46101af3660046113e2565b61070f565b005b6101b46101c4366004611439565b6107b4565b3480156101d557600080fd5b506101396107d3565b6101b46101ec3660046114fb565b6107f0565b3480156101fd57600080fd5b506101b461088f565b34801561021257600080fd5b506101b4610221366004611555565b6108a3565b34801561023257600080fd5b507f9016d09d72d40fdae2fd8ceac6b6234c7706214fd39c1cd1e609a0528c199300546001600160a01b03165b6040516001600160a01b039091168152602001610143565b34801561028357600080fd5b506101b4610292366004611555565b610954565b3480156102a357600080fd5b506101396102b2366004611570565b60036020526000908152604090205481565b3480156102d057600080fd5b506102f5604051806040016040528060058152602001640352e302e360dc1b81525081565b60405161014391906115db565b34801561030e57600080fd5b5060005461025f906001600160a01b031681565b34801561032e57600080fd5b5060025461025f906001600160a01b031681565b34801561034e57600080fd5b506101b461035d366004611570565b610a05565b34801561036e57600080fd5b506101b461037d366004611555565b610ac9565b34801561038e57600080fd5b5060015461025f906001600160a01b031681565b3480156103ae57600080fd5b506101b46103bd3660046115ee565b610b07565b6000806103e16000843060405180602001604052806000815250610c1e565b905060006103ee87610c53565b60005460405163f7ccd32160e01b81529192506001600160a01b03169063f7ccd32190610427908a9085908b908b90899060040161166b565b602060405180830381865afa158015610444573d6000803e3d6000fd5b505050506040513d601f19601f8201168201806040525081019061046891906116af565b979650505050505050565b60015460009081906001600160a01b031633146104a357604051631d5ae81760e01b815260040160405180910390fd5b60006104ae88610c53565b9050478511156104d0576040516274cb5360e91b815260040160405180910390fd5b600047905060006104f36000873060405180602001604052806000815250610c1e565b60005460405163122bba3560e21b81529192506001600160a01b0316906348aee8d490899061052e908e9088908f908f90899060040161166b565b60206040518083038185885af115801561054c573d6000803e3d6000fd5b50505050506040513d601f19601f8201168201806040525081019061057191906116af565b945061057d47836116c8565b93505050509550959350505050565b60015460009081906001600160a01b031633146105bc57604051631d5ae81760e01b815260040160405180910390fd5b60006105c787610c53565b9050600047905060006105ec6000873060405180602001604052806000815250610c1e565b60005460405163122bba3560e21b81529192506001600160a01b0316906348aee8d4903490610627908d9088908e908e90899060040161166b565b60206040518083038185885af1158015610645573d6000803e3d6000fd5b50505050506040513d601f19601f8201168201806040525081019061066a91906116af565b945061067647836116c8565b9350600061068485346116c8565b90508015610702576001546040516000916001600160a01b03169083908381818185875af1925050503d80600081146106d9576040519150601f19603f3d011682016040523d82523d6000602084013e6106de565b606091505b50509050806107005760405163303a6d6d60e01b815260040160405180910390fd5b505b5050505094509492505050565b6001546001600160a01b0316331461073a57604051631d5ae81760e01b815260040160405180910390fd5b80600081900361075d576040516350030aab60e11b815260040160405180910390fd5b63ffffffff8316600081815260036020908152604091829020859055815192835282018490527fee6ff88e9e8f1bef46ec1b8f9854abff9ff286723c69f62aca52fe16cea96bec91015b60405180910390a1505050565b6107bc610c8f565b6107c582610d34565b6107cf8282610d3c565b5050565b60006107dd610dfe565b5060008051602061177983398151915290565b6000546001600160a01b0316331461081b57604051634b46abf560e01b815260040160405180910390fd5b6108258484610e47565b60015460405163f953cec760e01b81526001600160a01b039091169063f953cec79061085790859085906004016116e9565b600060405180830381600087803b15801561087157600080fd5b505af1158015610885573d6000803e3d6000fd5b5050505050505050565b610897610e7d565b6108a16000610ed8565b565b6001546001600160a01b031633146108ce57604051631d5ae81760e01b815260040160405180910390fd5b6001600160a01b03811660008190036108fa576040516350030aab60e11b815260040160405180910390fd5b600080546001600160a01b038481166001600160a01b031983168117909355604080519190921680825260208201939093527fc9f808ed2d4877daa57900b86147cc4d4c05e37ac36bc6d417d387dfc3f3e6a791016107a7565b6001546001600160a01b0316331461097f57604051631d5ae81760e01b815260040160405180910390fd5b6001600160a01b03811660008190036109ab576040516350030aab60e11b815260040160405180910390fd5b600280546001600160a01b038481166001600160a01b031983168117909355604080519190921680825260208201939093527f9261756417ba2a99d4ba8e96f1e45b7b17e5ebeee305c9d44945ce6f46d7373491016107a7565b6001546001600160a01b03163314610a3057604051631d5ae81760e01b815260040160405180910390fd5b63ffffffff811660009081526003602052604081205490819003610a74576040516355c2076560e01b815263ffffffff831660048201526024015b60405180910390fd5b63ffffffff8216600081815260036020908152604080832092909255815192835282018390527fe3a0af075590c1fd9957aa16b97c0ee91fadc001965b02e4d512b1fa6a04e7ef910160405180910390a15050565b610ad1610e7d565b6001600160a01b038116610afb57604051631e4fbdf760e01b815260006004820152602401610a6b565b610b0481610ed8565b50565b7ff0c57e16840df040f15088dc2f81fe391c3923bec73e23a9662efc9c229c6a008054600160401b810460ff16159067ffffffffffffffff16600081158015610b4d5750825b905060008267ffffffffffffffff166001148015610b6a5750303b155b905081158015610b78575080155b15610b965760405163f92ee8a960e01b815260040160405180910390fd5b845467ffffffffffffffff191660011785558315610bc057845460ff60401b1916600160401b1785555b610bcc89898989610f49565b8315610c1357845460ff60401b19168555604051600181527fc7f505b2f371ae2175ee4913f4499e1f2633a7b5936321eed1cdaeb6115181d2906020015b60405180910390a15b505050505050505050565b6060600185858585604051602001610c3a959493929190611705565b6040516020818303038152906040529050949350505050565b63ffffffff811660009081526003602052604081205490819003610c8a57604051634808c18160e01b815260040160405180910390fd5b919050565b306001600160a01b037f0000000000000000000000000000000000000000000000000000000000000000161480610d1657507f00000000000000000000000000000000000000000000000000000000000000006001600160a01b0316610d0a600080516020611779833981519152546001600160a01b031690565b6001600160a01b031614155b156108a15760405163703e46dd60e11b815260040160405180910390fd5b610b04610e7d565b816001600160a01b03166352d1902d6040518163ffffffff1660e01b8152600401602060405180830381865afa925050508015610d96575060408051601f3d908101601f19168201909252610d93918101906116af565b60015b610dbe57604051634c9c8ce360e01b81526001600160a01b0383166004820152602401610a6b565b6000805160206117798339815191528114610def57604051632a87526960e21b815260048101829052602401610a6b565b610df9838361108a565b505050565b306001600160a01b037f000000000000000000000000000000000000000000000000000000000000000016146108a15760405163703e46dd60e11b815260040160405180910390fd5b63ffffffff8216600090815260036020526040902054818114610df9576040516304da19d760e41b815260040160405180910390fd5b33610eaf7f9016d09d72d40fdae2fd8ceac6b6234c7706214fd39c1cd1e609a0528c199300546001600160a01b031690565b6001600160a01b0316146108a15760405163118cdaa760e01b8152336004820152602401610a6b565b7f9016d09d72d40fdae2fd8ceac6b6234c7706214fd39c1cd1e609a0528c19930080546001600160a01b031981166001600160a01b03848116918217845560405192169182907f8be0079c531659141344cd1fd0a4f28419497f9722a3daafe3b4186f6b6457e090600090a3505050565b7ff0c57e16840df040f15088dc2f81fe391c3923bec73e23a9662efc9c229c6a008054600160401b810460ff16159067ffffffffffffffff16600081158015610f8f5750825b905060008267ffffffffffffffff166001148015610fac5750303b155b905081158015610fba575080155b15610fd85760405163f92ee8a960e01b815260040160405180910390fd5b845467ffffffffffffffff19166001178555831561100257845460ff60401b1916600160401b1785555b61100b896110e0565b600080546001600160a01b03808b166001600160a01b031992831617909255600180548a841690831617905560028054928916929091169190911790558315610c1357845460ff60401b19168555604051600181527fc7f505b2f371ae2175ee4913f4499e1f2633a7b5936321eed1cdaeb6115181d290602001610c0a565b611093826110f1565b6040516001600160a01b038316907fbc7cd75a20ee27fd9adebab32041f755214dbc6bffa90cc0225b39da2e5c2d3b90600090a28051156110d857610df98282611156565b6107cf6111ce565b6110e86111ed565b610b0481611236565b806001600160a01b03163b60000361112757604051634c9c8ce360e01b81526001600160a01b0382166004820152602401610a6b565b60008051602061177983398151915280546001600160a01b0319166001600160a01b0392909216919091179055565b6060600080846001600160a01b031684604051611173919061175c565b600060405180830381855af49150503d80600081146111ae576040519150601f19603f3d011682016040523d82523d6000602084013e6111b3565b606091505b50915091506111c385838361123e565b925050505b92915050565b34156108a15760405163b398979f60e01b815260040160405180910390fd5b7ff0c57e16840df040f15088dc2f81fe391c3923bec73e23a9662efc9c229c6a0054600160401b900460ff166108a157604051631afcd79f60e31b815260040160405180910390fd5b610ad16111ed565b6060826112535761124e8261129d565b611296565b815115801561126a57506001600160a01b0384163b155b1561129357604051639996b31560e01b81526001600160a01b0385166004820152602401610a6b565b50805b9392505050565b8051156112ad5780518082602001fd5b604051630a12f52160e11b815260040160405180910390fd5b803563ffffffff81168114610c8a57600080fd5b60008083601f8401126112ec57600080fd5b50813567ffffffffffffffff81111561130457600080fd5b60208301915083602082850101111561131c57600080fd5b9250929050565b6000806000806060858703121561133957600080fd5b611342856112c6565b9350602085013567ffffffffffffffff81111561135e57600080fd5b61136a878288016112da565b9598909750949560400135949350505050565b60008060008060006080868803121561139557600080fd5b61139e866112c6565b9450602086013567ffffffffffffffff8111156113ba57600080fd5b6113c6888289016112da565b9699909850959660408101359660609091013595509350505050565b600080604083850312156113f557600080fd5b6113fe836112c6565b946020939093013593505050565b80356001600160a01b0381168114610c8a57600080fd5b634e487b7160e01b600052604160045260246000fd5b6000806040838503121561144c57600080fd5b6114558361140c565b9150602083013567ffffffffffffffff8082111561147257600080fd5b818501915085601f83011261148657600080fd5b81358181111561149857611498611423565b604051601f8201601f19908116603f011681019083821181831017156114c0576114c0611423565b816040528281528860208487010111156114d957600080fd5b8260208601602083013760006020848301015280955050505050509250929050565b6000806000806060858703121561151157600080fd5b61151a856112c6565b935060208501359250604085013567ffffffffffffffff81111561153d57600080fd5b611549878288016112da565b95989497509550505050565b60006020828403121561156757600080fd5b6112968261140c565b60006020828403121561158257600080fd5b611296826112c6565b60005b838110156115a657818101518382015260200161158e565b50506000910152565b600081518084526115c781602086016020860161158b565b601f01601f19169290920160200192915050565b60208152600061129660208301846115af565b6000806000806080858703121561160457600080fd5b61160d8561140c565b935061161b6020860161140c565b92506116296040860161140c565b91506116376060860161140c565b905092959194509250565b81835281816020850137506000828201602090810191909152601f909101601f19169091010190565b63ffffffff86168152846020820152608060408201526000611691608083018587611642565b82810360608401526116a381856115af565b98975050505050505050565b6000602082840312156116c157600080fd5b5051919050565b818103818111156111c857634e487b7160e01b600052601160045260246000fd5b6020815260006116fd602083018486611642565b949350505050565b61ffff60f01b8660f01b1681528460028201528360228201526bffffffffffffffffffffffff198360601b1660428201526000825161174b81605685016020870161158b565b919091016056019695505050505050565b6000825161176e81846020870161158b565b919091019291505056fe360894a13ba1a3210667c828492db98dca3e2076cc3735a920a3ca505d382bbca26469706673582212201cc80de6513b37ade0e8ed34aef20c9bc1dbf5e06d20c3300f224183cbf3eae264736f6c63430008190033",
    "linkReferences": {}
  },
  "methodIdentifiers": {
    "UPGRADE_INTERFACE_VERSION()": "ad3cb1cc",
    "chainGateways(uint32)": "a1f9495e",
    "handle(uint32,bytes32,bytes)": "56d5d475",
    "initialize(address,address,address,address)": "f8c8765e",
    "interchainSecurityModule()": "de523cf3",
    "mailbox()": "d5438eae",
    "owner()": "8da5cb5b",
    "proxiableUUID()": "52d1902d",
    "quoteMessage(uint32,bytes,uint256)": "0278681b",
    "receiver()": "f7260d3e",
    "removeChainGateway(uint32)": "edad341b",
    "renounceOwnership()": "715018a6",
    "sendMessage(uint32,bytes,uint256)": "3e8c4294",
    "sendMessage(uint32,bytes,uint256,uint256)": "04e77a66",
    "setChainGateway(uint32,bytes32)": "4461ef41",
    "transferOwnership(address)": "f2fde38b",
    "updateMailbox(address)": "8a901b9f",
    "updateSecurityModule(address)": "91a3ef8e",
    "upgradeToAndCall(address,bytes)": "4f1ef286"
  },
  "id": 81
}